:100000000C942F020C944C020C944C020C948925F5
:100010000C944C020C944C020C944C020C944C0228
:100020000C944C020C944C020C943D2B0C94102C10
:100030000C9495220C944C020C944C020C944C029F
:100040000C944C020C944C020C944C020C944C02F8
:100050000C944C020C9432230C944C020C944C02E1
:100060000C944C020C944C020C944C020C944C02D8
:100070000C944C020C944C020C944C020C944C02C8
:100080000C944C020C944C020C944C020C944C02B8
:100090000C944C020C944C020C944C020C944C02A8
:1000A0000C944C020C944C020C944C0229001E003F
:1000B0001F002000210022002B0014001A0008005D
:1000C00015001700E00004001600070009000A00F0
:1000D000E1001D001B000600190005000000E20001
:1000E000E30021522C002F003500270026002500B8
:1000F000240023002F00130012000C0018001C0025
:10010000340033000F000E000D000B00E500380036
:1001100037003600100011000000E7002A002252CC
:100120002800300001003A003B003C003D003E004A
:100130003A003B003C003D003E003F0035001E02FF
:100140001F02200221022202E000AE00AB00AA0042
:10015000A9000100000001000100010001000100F0
:10016000440043004200410040003F00450044007D
:1001700043004200410040003502270226022502CA
:1001800024022302310230022F022E022D002E0003
:10019000000001004C002352010001003A003B0026
:1001A0003C003D003E003F0035001E001F002000C7
:1001B000210022003A003B003C003D003E003F0091
:1001C000400041004200430044004500000001009F
:1001D000010022520100010045004400430042009A
:1001E00041004000010027002600250024002300D4
:1001F00000004F005200510050000000310030005C
:100200002F002E002D002E02000001004C000100E6
:100210000100010000AE00AF00DA0281FFD9F1DB7E
:1002200020A4A62EAF00A0C0D30000A1C8D3000018
:10023000AED580A81F408D142000000000000000F3
:1002400000002A2B28000000000000000000000031
:10025000000000000029000000002C1E3420212294
:1002600024342627252E362D3738271E1F202122FD
:10027000232425263333362E37381F040506070876
:10028000090A0B0C0D0E0F10111213141516171866
:10029000191A1B1C1D2F3130232D350405060708A4
:1002A000090A0B0C0D0E0F10111213141516171846
:1002B000191A1B1C1D2F3130354C000000000000A6
:1002C000000000000000000000000000000000002E
:1002D00000000000000000000000000000007E0F91
:1002E00000D4FFFFFFC7000000780E034C00690038
:1002F0006C00790035003800000010036C006900C4
:100300006C00690075006D007300000004030904AF
:1003100009025B00030100A0FA09040000010301C7
:100320000100092111010001224400070581030891
:10033000000109040100020300000009211101006D
:100340000122220007058203200001070503032084
:10035000000109040200010300000009211101004D
:1003600001227B0007058403200001120100020026
:10037000000008D8042DEB0001010200010660FF17
:100380000961A1010962150026FF00952075088109
:10039000020963150026FF00952075089102C0052B
:1003A000010902A10185020901A10005091901291C
:1003B000081500250195087501810205010930091C
:1003C000311581257F95027508810609381581252B
:1003D0007F950175088106050C0A38021581257F75
:1003E000950175088106C0C005010980A10185033A
:1003F00019012AB700150126B70095017510810073
:10040000C0050C0901A101850419012AA0021501EA
:1004100026A002950175108100C005010906A10101
:10042000050719E029E715002501950875018102E6
:100430009501750881010507190029FF150026FFA0
:100440000095067508810005081901290515002584
:1004500001950575019102950175039101C0112463
:100460001FBECFEFDAE0DEBFCDBF11E0A0E0B1E00C
:10047000E6E1FEE502C005900D92A43FB107D9F771
:1004800025E0A4EFB1E001C01D92A334B207E1F76B
:100490000E94BE140C94A42E0C940000811108C07C
:1004A0008AEA611101C089EA0E94A00480E00895EF
:1004B0008130E1F78AED6111F7CF89EDF5CF833017
:1004C000B8F46A30A8F4463098F4E42FF0E096E0EF
:1004D000699FE00DF11D11249CE3899FE00DF11D42
:1004E0001124EE0FFF1FE455FF4F8591949108955D
:1004F00081E090E0089581E008950E947B020895D4
:1005000081E0089581E008950E948202089508958F
:100510000E9487020895A6E0B0E0E1E9F2E00C94C1
:10052000142E49835A839E833091FB0189819A81DD
:1005300031111AC03E81311599F0211589F00E94C0
:100540002C08182F682F89819A810E9408086981D8
:100550007A81812F0E943B0F2696E3E00C94302E87
:100560000E941A08182FF3CF0E942C0869817A8103
:10057000F1CFFC01262F40815181628173818481FA
:1005800095810E948B020895CF93DF93D82FC92FB6
:1005900061E00E94B9026D2F7C2F0E947D02DF91E5
:1005A000CF910895CF93DF93D82FC92F60E00E9499
:1005B000B9026D2F7C2F0E948802DF91CF910895A0
:1005C00091E001C0990F8A95EAF7892F0E944A07A6
:1005D0000895CF93C82F81E00C2E01C0880F0A9494
:1005E000EAF70E94770C8C2F0E94E002CF910895C9
:1005F00081E008950E94F8020895CF93C82F0E94C9
:10060000F6068C2F0E94FA022FEF84E39CE0215023
:1006100080409040E1F700C00000CF91089581E054
:100620000E94FD020E945623089580E00E94FD0270
:100630000E94672308950F931F93CF93DF938C013C
:1006400061E00E94B902EC01B8010E940820811506
:1006500009F449C0B801CE010E948402811509F451
:1006600042C0B801CE010E94221F8115E1F1B801FC
:10067000CE010E94671A8115B1F1B801CE010E9426
:100680003C1A811581F1B801CE010E94641F8115C9
:1006900051F1B801CE010E948610811521F1F801B7
:1006A0008581811581F0CA35FCE7DF0739F178F4DF
:1006B000C130ECE7DE07F9F0C330FCE7DF07C9F033
:1006C000C115DC4771F0C8010E9480020DC0CB3516
:1006D000ECE7DE07B1F0CC35DC47A9F70E94490C06
:1006E000F2CF0E940F0380E0DF91CF911F910F9115
:1006F00008950E945A0C0E941503F5CF0E94520CD7
:10070000E2CF0E94560CDFCF0E9472220E94A60305
:100710000E94951608950E94AA030E9477220895C8
:1007200081E008950895CF93DF93D82F0E9490031E
:10073000C82F811519F08D2F0E9492038C2FDF9105
:10074000CF91089508950E949303089580E00E9438
:10075000A30308950E94F6200E94A3030895CF9357
:100760000E94F620C82F8091F6018C1779F0C09373
:10077000F6010E9401236093F7017093F8018093C2
:10078000F9019093FA018C2F0E94A303CF91089551
:10079000ADE0B0E0EEECF3E00C94152E48875987FD
:1007A0006A877B878C879D8791110E94850B1F82AA
:1007B00086E0FE013896DE01119601900D928A9531
:1007C000E1F78D8181110DC029813A814B815C81D6
:1007D0006D817E818F810E94CF0A2D96E2E00C947C
:1007E000312ECE0101960E94C4028111EDCFF5CFCA
:1007F000FC018481813021F4808191810E9455081F
:100800000895611529F00E94CD1B0E948E1C089549
:100810000E94161CFACFCF93C82F811599F08CEF48
:100820008C0F813A88F48C2F0E948421811529F045
:100830008C2F0E94C8210E94F60B8C2F0E94C02191
:100840000E94F60BCF91089580E28C0F883048F417
:10085000C77081E001C0880FCA95EAF70E94660B55
:10086000EFCF8BE58C0F833038F42C2F2452330BD1
:10087000C9010E942421E6CFE8E5EC0FEB3150F4EA
:10088000F0E0EE0FFF1FED5AFE4F808191810E9434
:100890004A21D8CF83E38C0F8331A0F661E08C2FFF
:1008A0000E940104CFCF811581F19CEF980F913AFE
:1008B00028F40E94C8210E94F60B089590E2980F38
:1008C000983050F4877091E001C0990F8A95EAF74B
:1008D000892F0E946C0BEFCF9BE5980F933028F483
:1008E00080E090E00E942421089598E5980F9B31C4
:1008F00028F480E090E00E944A21089593E3980F45
:10090000933118F460E00E94010408950F931F933F
:10091000CF93C82F8B010E940B040115110539F4E8
:100920008C2F0E945304CF911F910F9108958FE94E
:100930009FE00197F1F700C0000001501109EDCFD1
:1009400060E570E0893311F060E070E00E94860499
:100950000895811521F00E94660B0E94F60B089500
:10096000811521F00E946C0B0E94F60B0895A0E007
:10097000B0E0EDEBF4E00C940F2E6C01D62FC72FF6
:10098000FC011581068102950F700E945B0BE82E19
:100990008115F9F0E12E1115E1F08C2F807F803464
:1009A00061F080E28D0F8830F0F08C2F807E8032F5
:1009B00021F4D230C0F00115B1F080910F0382FF15
:1009C00012C082E00E941C0C0E945B0B91E0E82E9A
:1009D000E926EC2FE295EF70C03CB0F5F0E0EA5567
:1009E000F14D0C94F82DE12CF4CF0C2F0F70C03189
:1009F00010F00295007F111599F0011559F080E271
:100A00008D0F883010F0D11107C0802F0E94660B27
:100A10000E94F60B8D2F51C0802F0E94770BF8CFCC
:100A20008D2F0E945304011579F080E28D0F8830DC
:100A300010F0D11104C0802F0E946C0B03C0802FD6
:100A40000E947D0B0E94F60BE11489F00E94570B67
:100A500080FD0DC0F60115820E94510B0E947707A0
:100A6000C6010E94BD060E94510B0E948307CDB7AC
:100A7000DEB7E8E00C942B2EFC2FFF70FF2EC07F1A
:100A8000C03219F0F29480EFF822D11541F0D13044
:100A9000D1F1111509F444C00115F1F0BBCF8091DB
:100AA0000F0382FD15C0111559F0F11429F08F2D97
:100AB0000E94660B0E94F60B80E00E940B04C4CFDC
:100AC00080E00E945304F11409F4BECF8F2DB4CFFF
:100AD000111569F0011104C08F2D0E94A904B4CF33
:100AE000013009F0B1CF8F2D0E949D0BADCF0111C8
:100AF000ABCF8F2D0E94B0048F2D0E94A90B8F2D9C
:100B00000E948C0BA1CF111521F0063008F09CCF6C
:100B1000E3CF053008F098CF8F2D0E94B00494CF1A
:100B20000115D1F3D93349F42FEF87EE93E021502B
:100B300080409040E1F700C000008D2F0E945304D8
:100B400083CF8C2F869586958370811569F08130CF
:100B500009F07ACF8D2F9C2F9370111102C080E085
:100B600090E00E944A2170CF8D2F9C2F937011111D
:100B700002C080E090E00E94242166CF612F8D2F7B
:100B80000E94010461CF8C2F8370811134C0111138
:100B900024C04D2F429546954770440F440F8D2F2A
:100BA0008F70042E01C0880F0A94EAF72D2F207150
:100BB000D4FF07C02FE030E001C0220F4A95EAF7CA
:100BC0002095C695C695C370822BC23071F0C33094
:100BD00079F0C13039F00E9453070E94F6200E943C
:100BE000A30332CF0E944D07F8CF0E945907F5CFDB
:100BF0000E944A07F2CF111539F1C0FFEECF4D2FF9
:100C0000429546954770440F440F8D2F8F70042EE8
:100C100001C0880F0A94EAF72D2F2071D4FF07C076
:100C20002FE030E001C0220F4A95EAF72095C695E3
:100C3000C695C370822BC23069F0C33071F0C130E9
:100C400031F00E94A507C9CF823038F2D8CF0E9478
:100C50009F07C3CF0E94AB07C0CF0E946507BDCFDF
:100C6000CF70111539F08C2F0E9477078D2F0E94BD
:100C7000A904B3CF8D2F0E94B0048C2F0E9483074C
:100C8000ACCFD23F41F170F4D03FC9F0D13F91F0E9
:100C9000111509F446C0011509F440C08D2F0E94BA
:100CA0000B049BCFD33FF1F0D43F91F780910F031A
:100CB00082FD22C08C2F8F71111501F310C0111508
:100CC00041F0053008F089CF8C2F8F710E94930777
:100CD00084CF0630F7CF8C2F8F711111CFCF0E94A8
:100CE00077077BCF111529F08C2F8F710E946E072B
:100CF00074CF0E946A0771CF111531F063E08C2F19
:100D00008F710E94FD0B69CF81E00E941C0C0230A4
:100D100008F463CF82E00E941C0C5FCF8C2F8F7190
:100D2000DECF011579F0D93349F4EFEFF7EE23E088
:100D3000E150F0402040E1F700C000008D2F0E94FC
:100D400053044BCF8C2F8F7199CF0F931F93CF9359
:100D5000DF93EC01688179818D810E9462088C01AA
:100D60000E94B1070E944907B801CE010E94B70452
:100D7000DF91CF911F910F910895CF93DF93EC01F5
:100D80008C81811599F0CE010E941B03811111C045
:100D90000E945B0B811551F08D81811539F0809196
:100DA0000F0382FF03C082E00E941C0CDF91CF91F1
:100DB0000895CE010E94A506CE010E94D202F6CF70
:100DC00080E090E00E94242180E090E00E944A218F
:100DD0000E94850B0E94F60B0E94AB1C0E948E1C89
:100DE00008950E94D0210E94E00608950E94740B8D
:100DF0000E94F1060895282F92959F70963099F0E1
:100E000060F4925F9F70923030F4203FB1F038F47C
:100E100081E0283E38F080E008959A5FF3CF81E0CA
:100E2000243FC9F7089591E0813F09F090E081E007
:100E3000283E08F080E0892B089581E00895FC01A8
:100E40008481811539F0808191810E9455080E942A
:100E5000FB06089580E00895A6E0B0E0E2E3F7E045
:100E60000C94152E2696E2E00C94312EA7E0B0E00B
:100E7000ECE3F7E00C94152E2796E2E00C94312E6B
:100E800008950E94400708950E944107809315022B
:100E9000089508950E944407089590911502892BA2
:100EA0000E94440708959091150289230E944407E7
:100EB00008959091150289270E94440708950E9481
:100EC000400708950E945F0708950E94620780937B
:100ED0001402089580E00E946507089591E001C022
:100EE000990F8A95EAF7892F0E946507089521E0F6
:100EF00030E001C0220F8A95EAF780911402822B1C
:100F00000E946507089521E030E0A90102C0440F66
:100F1000551F8A95E2F7CA018095909114028923A2
:100F20000E946507089521E030E001C0220F8A95F4
:100F3000EAF78091140282270E9465070895909134
:100F40001402892B0E946507089590911402892349
:100F50000E94650708959091140289270E946507F1
:100F6000089508959B01677091E001C0990F6A95FB
:100F7000EAF763E0369527956A95E1F7B901660FC0
:100F8000771F260F371FFA01E20FF31F40E050E0F2
:100F9000682F70E08191DF019B01042E02C036951D
:100FA00027950A94E2F721702195282729232827DD
:100FB0002E934F5F5F4F4330510561F708959C01B9
:100FC000A82FA77083E0369527958A95E1F7C90188
:100FD000880F991F820F931FFB01E80FF91F40E054
:100FE00050E080E0219130E00A2E02C0369527952E
:100FF0000A94E2F721703327042E01C0220F0A94CD
:10100000EAF7822B4F5F5F4F4330510559F7089540
:10101000282F862F9A3068F4263058F4622F70E01B
:1010200026E0929F600D711D11244CEF51E00E944B
:10103000B2070895292F9A3068F4863058F490E06A
:101040006CEF71E036E0239F800D911D11240E940A
:10105000DF07089580E00895A0E0B0E0E2E3F8E063
:101060000C94102E7C010091140280911502082B23
:10107000C3E0D0E010E0C8010C2E02C09595879522
:101080000A94E2F780FD09C02197A8F7D12C8D2D95
:10109000CDB7DEB7E7E00C942C2EDC2EB7018C2FF9
:1010A0000E94470F019781F3F2CFCF93DF93D82FA0
:1010B000C92F0E942C086D2F7C2F0E94470FDF91B3
:1010C000CF9108951F93CF93DF93162FD72F909131
:1010D000FB01911541F0862F972F0E945508DF9153
:1010E000CF911F910895811581F0862F972F0E942F
:1010F0002C08C82F682F812F9D2F0E940808612F70
:101100007D2F8C2F0E94470FEACF862F972F0E94AA
:101110001A08C82FF4CFE1E0F0E0DF0102C0AA0F07
:10112000BB1F6A95E2F7BD01DF0102C0AA0FBB1F1A
:101130004A95E2F76A2B01C0EE0F2A95EAF7962F3F
:101140009823961302C08E2B0895E0958E23089560
:10115000242F462F682F809114020E948B080E9432
:10116000650708950F931F93CF93E0911602C7E090
:10117000809117028E1304C0CF911F910F91089593
:101180000E2F10E0CE9FF0011124E85EFD4F20816C
:101190003181428153816481758186810E94360745
:1011A000F8013196E770E4CF20915002309151025E
:1011B0004091520250915302609154027091550235
:1011C000809156020E943607089580915602803120
:1011D00078F480915502811559F0E0911602209122
:1011E0001702309151024091500257E02E1301C076
:1011F00008956E2F70E05E9FF0011124DF01A85E5C
:10120000BD4F14968C911497811561F111968C91B4
:101210001197831327C08C91841324C015968C9149
:10122000159781111FC012968D919C91A091520229
:10123000B09153028A1B9B0B883C910598F48091D6
:1012400056028F70806180935602E25EFD4F80816E
:101250008F708061808380E592E00E94BD060E94CD
:10126000B2080895FB013196E770C0CFE0911602F5
:101270009091170227E0E91302C080E00895AE2F95
:10128000B0E02E9FF0011124E85EFD4F318136134E
:1012900006C03081381303C03581341304C0FD010A
:1012A0003196E770E8CF81E008958F929F92AF92D8
:1012B000BF92DF92EF92FF920F931F93CF93DF9332
:1012C000CDB7DEB72D970FB6F894DEBF0FBECDBFFA
:1012D0008C0186E0F801DE01189601900D928A9546
:1012E000E1F7F801F580848190E5892E92E0992E4E
:1012F0009091540291111BC0811509F4FFC0F114A3
:1013000009F440C1C8010E941F07811509F43AC1C0
:1013100087E0F801D40101900D928A95E1F7C401AC
:101320000E94F8030E94E5080E94D408E7C0E0800C
:10133000A280B380D0905502209152023091530286
:10134000A501421B530BD11409F4DBC0483C5105E5
:1013500008F0A6C0811509F4D1C090915102918086
:1013600080915602803108F06BC0991228C090918C
:1013700050029E1124C0F1105DC08F708061809377
:1013800056020E94D40880E592E00E94BD0680913A
:101390005602F8018683F12C8F2D2D960FB6F89406
:1013A000DEBF0FBECDBFDF91CF911F910F91FF9098
:1013B000EF90DF90BF90AF909F908F900895F110C5
:1013C00039C040E0692D8E2D0E94360940E0692D1C
:1013D0008E2D0E943609F82E8111DDCF88859985E2
:1013E0000E945508292F22952F70903450F49F7039
:1013F000223080F0911599F0F8019681903178F4BF
:10140000CBCF2A5F2F70223078F0C8010E94BD0632
:10141000FD2CC2CF911519F0811509F4BDCF805E66
:10142000883008F4B9CFF1CF803F08F4B5CF815FA1
:101430008330F7CF80915602816080935602ABCF04
:10144000991207C0909150029E1103C0F11409F443
:1014500079C0C8010E941F07811509F493C0F114D7
:1014600009F490C080915602803288F02091500299
:10147000309151023A832983BC82AB82909154020D
:101480009D831E828F83CE0101960E94BD0687E058
:10149000F801A0E5B2E001900D928A95E1F742CF04
:1014A000909156029031A0F4488559856A857B85D4
:1014B0008C859D850E942C0780E592E00E94BD06E8
:1014C00087E0F40111928A95E9F70E94D40863CF6E
:1014D0008115A1F02091510281812813BACF80910A
:1014E00050028E11B6CFF110B4CF9683C8010E947E
:1014F000BD0687E0F40111928A95E9F7FF24F39481
:101500004BCF483C510508F041C08115B9F3F114A7
:10151000C9F190915102818198132AC080915002A3
:101520008E1126C08091560280FD19C08031B8F01E
:101530008683807F803F39F08681982F907F905FEF
:101540008F70892B8683C8010E94BD0687E0F80151
:10155000A0E5B2E001900D928A95E1F7E5CE87E033
:10156000F801A0E5B2E001900D928A95E1F7C6CFAF
:10157000C8010E941F0781118ACF809156028160A5
:1015800080935602C8010E94BD06B8CF4885598590
:101590006A857B858C859D850E942C0791CFAEE066
:1015A000B0E0E5EDFAE00C94142E288739874A87DD
:1015B0005B876C877D878E87CE0108960E945509D0
:1015C0006C858115A9F0611541F0288539854A851A
:1015D0005B857D858E850E94360717E08091160217
:1015E0009091170289133AC02E96E3E00C94302EA6
:1015F00087E0FE013896DE01119601900D928A95E2
:10160000E1F7611551F3A09117028A2F90E001963E
:1016100087709927209116022817190689F097E0FC
:101620009A9FD0011124A85EBD4FFE013196019012
:101630000D929A95E1F7809317020E94B208CDCFE0
:101640000E94F606109217021092160287E0E0E55B
:10165000F2E0DF011D928A95E9F7BFCF189FC00124
:101660001124885E9D4F0E945509811509F4BCCF55
:10167000E09116021E9FF0011124E85EFD4F2081CB
:101680003181428153816481758186810E94360750
:101690008091160290E00196877099278093160238
:1016A0009DCF80915F02869586958695089580915D
:1016B0005F028770089590915F02977081E09111A9
:1016C00001C080E0089580916B02089590916B02B3
:1016D000982B90936B020895982F909580916B02B0
:1016E000892380936B02089510926B020895909164
:1016F0006A02982B90936A020895982F9095809192
:101700006A02892380936A02089510926A020895FA
:1017100008950E94880B089590916002292F282334
:10172000211531F080958923809360020E94890BF6
:10173000089508950E94990B089590916102292FB0
:101740002823281729F0982B909361020E949A0B66
:10175000089590916102292F2823211531F0809559
:101760008923809361020E949A0B089580916102FF
:10177000811529F01092610280E00E949A0B089571
:101780000F931F93CF93DF930091000110910101FC
:10179000C0916B0280916A02C82B80916102811511
:1017A00031F0C82B0E94702181110E94B60BF80104
:1017B000C083C0910001D091010148E050E067E58D
:1017C00072E0CE010E943C2E892B59F088E0FE0188
:1017D000A7E5B2E001900D928A95E1F7CE010E9453
:1017E0000A21DF91CF911F910F9108950E94C00BA4
:1017F000089508950E94F90B0895962F20910F03E4
:1018000022FF11C0682F660F660F660F692B609369
:101810005F020E94770780915F0286958695869584
:101820000E94FA0B08950E947707089510925F02B4
:1018300080E00E94FA0B089590915F0280958923C1
:1018400080935F02282F277021110DC0891759F04E
:1018500090910F0392FF07C08695869586950E940A
:1018600083070E94160C089590910F0392FB222784
:1018700020F9281769F080FB92F990930F0380916B
:101880000E0390910F030E94820C82E00E941C0CB8
:10189000089580910F03002482FF0394802D0E94FD
:1018A000340C089581E00E94340C089580E00E9479
:1018B000340C08956FEF7FEF80E090E00E948E2E51
:1018C000089580E090E00E945A2E853E9E4F19F4C4
:1018D0000E949F1F089580E0089582E090E00E949A
:1018E000522E089583E090E00E94522E0895682FB2
:1018F00083E090E00E94702E089584E090E00E94C2
:101900005A2E0895BC0184E090E00E948E2E089526
:10191000AB01BC018FE090E00E94822E0895AB01E4
:10192000BC0183E190E00E94822E089560E070E0A7
:10193000CB010E948F0C089560E070E0CB010E9403
:10194000880C0E94960C0895A8E0B0E0EAEAFCE05A
:101950000C94152E65EE7EEF80E090E00E948E2EB6
:1019600060E082E090E00E94702E81E0809315029A
:101970000E94770C60E074E184E090E00E948E2E7B
:1019800060E086E090E00E94702E60E087E090E0EA
:101990000E94702E40E050E0BA0188E090E00E9482
:1019A000822E60E083E290E00E94702E60E08CE086
:1019B00090E00E94702E60E08DE090E00E94702E1A
:1019C00019821A821B821C821D821E821F82188627
:1019D00048E050E067E170E0CE0101960E94602E81
:1019E00040E050E0BA018FE190E00E94822E80E05A
:1019F0000E94B81F0E94EA1F0E949C0C2896E2E0F9
:101A00000C94312E0E94A40C0895682F8EE090E073
:101A10000E94702E0895A6E0B0E0E1E1FDE00C9494
:101A2000132E0E94F5228C0180916C0290916D0220
:101A30008017910779F019821A820E94F522BC0161
:101A400049815A8180E090E00E94C80310936D02A2
:101A500000936C022696E4E00C942F2E0E946210F4
:101A6000609380027093810280938202909383023C
:101A700060937C0270937D0280937E0290937F023C
:101A800008950E9462106093800270938102809397
:101A9000820290938302609378027093790280931C
:101AA0007A0290937B020895089508950E94540D40
:101AB000089508950E94590D089581E0089584E8DD
:101AC00090E10E94D5140E94550D0E94560D089574
:101AD0000E944F120895089508950E946B0D0E9470
:101AE0006C0D08950E94610C811102C00E94020DCC
:101AF0000E946D0C809384020E947D0C90930F03D2
:101B000080930E030E9494180E94720C0E944A0750
:101B1000809114020E94620708950E94EC220E94A4
:101B20003C100E94FA1F0E9457120E94F3160E9456
:101B30009D110E94720D0E94A2030E94971880E0DE
:101B40000E9422150E9469120E945A0D0895A6E073
:101B5000B0E0EDEAFDE00C940B2E0E945D0D082F25
:101B6000811111C00E940B0D00E00E944F120E94D3
:101B70009717811509F45FC00E94410D0E94B716A6
:101B80000E9485155CC00E94C1118EE6A82E82E0DD
:101B9000B82E650110E0F601F1906F01812F0E94CF
:101BA000A0101F5F1A3009F443C0F816A1F380910A
:101BB000840281FD0E94A6100E94680D982EF12CCF
:101BC000882483948F2D0E94A010182FF5019191E5
:101BD0005F01891731F1C82EC926E12CDD24D39489
:101BE0008D2D8C218115B1F09114A1F0E982FA823A
:101BF0000E94F5229C838B838D8291E08D2D812321
:101C0000811101C090E049815A816B817C818D8175
:101C10000E94C803E394DD0CF6E0EF12E1CFF5017A
:101C20001293F3948AE0F812CDCF0E942E0D9DCF2F
:101C3000F812BDCF97CF0E94B7160111A1CF0E9415
:101C4000CC1C0E94AF032696ECE00C94272E1F9329
:101C5000CF93DF930E944C0FEC01811522E5920790
:101C600008F05DC0811540E5940708F0DBC0803EB8
:101C7000910528F58D3C910508F0ACC0883A910596
:101C800078F4853A910508F0A2C08130910509F4F5
:101C900041C00497813A9105E8F1C0E0D0E03AC034
:101CA000885A91094B97C8F7C85AD0E0CC0FDD1F6E
:101CB000C757DE4F0990D881C02DD4642BC0811541
:101CC00050E49507F8F4C11580E2D80708F0C0C0C9
:101CD000C83ED105F8F0CE019A9581159F41E8F6EE
:101CE0008D2F0E94ED0F182FCE0199270E944C0FC7
:101CF000212F30E0322F2227E901CC27DF71C82BBA
:101D0000D92B08C099270E944C0FCC27DF70C82B15
:101D1000D92BD06ACE01DF91CF911F9108958038E1
:101D200042E59407C8F5803652E5950708F05BC098
:101D3000C03482E5D807D0F4C03292E5D90708F064
:101D40004BC08C2F8695869520E2829FC00111247E
:101D5000C37021E030E0A90102C0440F551FCA95AD
:101D6000E2F7EA01C82BD92BDD68D4CF8C2F8695FA
:101D70008695877050E2859FC0011124C37021E0D1
:101D800030E0A90102C0440F551FCA95E2F7EA01ED
:101D9000C82BD92BDC68BECF803C52E5950758F4A0
:101DA0008F71C03AD245A0F590E0982F8827EC01BA
:101DB000C46FD06AAFCF805C9245809708F06DCF3A
:101DC000DC2FCC27CC27DF71C06FD06AA3CFA497BC
:101DD000D064A0CFD0659ECFCF71D0E0DC2FCC27D0
:101DE000C16FD06A97CF86958695877020E2829FD3
:101DF000C0011124C37021E030E0A90102C0440FEA
:101E0000551FCA95E2F7EA01C82BD92BDA6882CFB1
:101E10000E94ED0FC82FD0E0DC2FCC27CC27DF713C
:101E2000D06278CF8F710E94ED0F53E0CC0FDD1F91
:101E30005A95E1F7CC27DF70282F30E084FF04C0EB
:101E400050E1859F90011124C22BD32BD06962CF22
:101E50008D2F8F710E94ED0F182FCE0199270E94B0
:101E60004C0F212F30E0322F222722273F71282BC1
:101E7000392BE901D5CF462F672F7A3028F4463029
:101E800018F40E946219089580E090E008950E947D
:101E90003B0F0E94270E08959C01803E910509F496
:101EA00048C0D8F48133910509F47DC048F48932E3
:101EB000910509F46DC08A9709F47CC0C9010895A1
:101EC0008933910551F18238910539F1C597B1F700
:101ED00080910E0385FFF2CF29C0843E910509F45D
:101EE00047C048F4823E910599F1833E9105A9F1DE
:101EF00021EE30E0E3CF863E910509F444C0873EF1
:101F00009105E1F680910E0383FD61C090910F036E
:101F100091FF2BC024EE30E0D1CF80910E0383706F
:101F2000811152C080910F0383FFC8CF29E230E0B6
:101F3000C5CF80910E0380FD33C090910F0390FFB9
:101F4000BDCF23EE30E084FFB9CF20E030E0B6CF44
:101F500080910E0382FDF5CFB1CF80910E0382FDFB
:101F600030C090910F0390FD2FC084FFA7CFEDCF1D
:101F700080910F0381FFA2CF80910E0327EE30E006
:101F800084FDE3CF9BCF80910E0383FDF7CF96CFE7
:101F900080910E0385FD1EC080910F0383FF8ECFBD
:101FA00029E330E08BCF80910E0386FF87CF2AE2B2
:101FB00030E084CF80910E0386FF80CF21E330E0B4
:101FC0007DCF22EE30E07ACF20EE30E077CF26EEE4
:101FD00030E074CF25E330E071CF90910E0392FF93
:101FE00010C041E0282F2471243009F040E031E096
:101FF000282F2871283009F030E0431711F02CE029
:10200000822793FF10C041E0282F2471243109F06A
:1020100040E031E0282F2871283109F030E04317E3
:1020200011F02CE0822730910F0330FF10C051E0F7
:10203000282F2171213009F050E041E0282F28712C
:10204000283009F040E0541711F029E0822731FFD1
:1020500010C041E0282F2171213109F040E031E02A
:10206000282F2871283109F030E0431711F029E0BA
:10207000822794FD877E0895109210031092110319
:1020800010921203109213030895CF92DF92EF92F1
:10209000FF926B017C010E944F1281110EC00E94C1
:1020A0000123C61AD70AE80AF90AC0921003D0928F
:1020B0001103E0921203F0921303FF90EF90DF9070
:1020C000CF900895CF92DF92EF92FF920E944F122D
:1020D000811559F00E9401236B017C01C701B601F3
:1020E000FF90EF90DF90CF9008950E940123C09061
:1020F0001003D0901103E0901203F0901303C60E6A
:10210000D71EE81EF91EEACF80E00895CF939C0108
:10211000FB01805E9245C1E0809738F4C581C11112
:1021200004C0822F8F710E94E9028C2FCF910895F5
:1021300008950E949810089508950E949C10089593
:10214000E82FF0E0E15EFC4F80810895089580EA79
:102150008A95F1F7089500C008950E94A710089588
:1021600008950E94B0100895A5E0B0E0EAEBF0E118
:102170000C940F2E0E944F12F82E8091290390E0AC
:10218000815E9C4FF114E9F125E0E22E8E010F5F94
:102190001F4FF8012E2D11922A95E9F7B8010E94E0
:1021A000771268018115B9F08091140390E045E041
:1021B00050E0B801815E9C4F0E943C2E21E02093AC
:1021C0008502892B91F4F12C0E949D108F2D25966C
:1021D000E8E00C942B2E809185028115A1F3F80183
:1021E0001192EA94E9F710928502A0911403B0E0ED
:1021F000A15EBC4F85E0F60101900D928A95E1F752
:10220000E3CF2091140330E0BC01C901815E9C4FF3
:102210000E9402130E94B110D9CFF894E82FE295E2
:10222000EF70F0E041A18F7021E030E0B90102C011
:10223000660F771F8A95E2F7CB01962F909594232E
:1022400091A392A1892B82A378940895CF93DF93D1
:10225000C5ECD1E089918F3F11F00E940D1181E012
:10226000CA3CD807B9F7CFEBD1E089918F3F11F085
:102270000E940D1181E0C53CD807B9F7DF91CF91DD
:102280000895A0E0B0E0E7E4F1E10C940F2EEC013A
:10229000D62E062F10E0C8018B539E4F7C01FC0107
:1022A00080818F3F09F444C0F894E82FE295EF70E5
:1022B000F0E091A18F7021E030E001C0220F8A95FB
:1022C000EAF7892F822B81A382A12095282322A3BC
:1022D00078940E94AB10AFEBB1E091E0C12C8D91EE
:1022E0008F3F79F0E82FE295EF70E05EF0E020811B
:1022F00030E08F7002C0359527958A95E2F7892FD7
:1023000020FD80E0C82A990FF1E0A53CBF0739F70E
:10231000F70180818F3F11F00E940D1161E0C11023
:1023200001C060E08D2D0E94AD10C00FD11FC8828A
:10233000CDB7DEB7E8E00C942B2E8091020180919E
:10234000020190E0811101C095E09093290385E09E
:10235000891B809314030E9426118AE0EFE1F3E0C9
:10236000DF01982F1D929A95E9F7E5E1F3E0DF018F
:102370001D928A95E9F785E00E9401120E9499104A
:102380000895AAE0B0E0E7ECF1E10C94122EFE0112
:1023900031968AE0DF011D928A95E9F710E0FE2E62
:1023A0000F2F612F8F2D902F0E9441111F5F15302D
:1023B000C1F74AE050E06F2D702F85E193E00E9455
:1023C0003C2E21E0892B99F420E06091290370E0F4
:1023D000615E7C4F45E085E193E00E940212182F78
:1023E0000E94B410812B2A96E5E00C942E2E8AE0F0
:1023F000EF2DF02FA5E1B3E001900D928A95E1F762
:10240000E4CF0895A0E0B0E0E8E0F2E10C940F2EF4
:10241000D82EE92EF62ED72F042FC22F211579F0B2
:1024200081E0809388020E94F52290938702809336
:10243000860280E0CDB7DEB7E8E00C942B2EC0908A
:102440008802C114B1F380918602909187020E94A4
:102450000D23059770F310E0A8016D2D7E2D8F2DB3
:102460009D2F0E943C2E892B41F0A8016D2D7E2DC1
:102470008F2D9D2F0E94492ECC2D109288028C2FDB
:10248000D9CFCF930E94C32DC82F811102C00E94C3
:10249000BE2D8C2FCF91089580918C02089580914C
:1024A0008B0208950E944F1291E0892708950E949F
:1024B000411280938B020E94521280938C020E94E0
:1024C0004C12809302010E944F1281110E94AD12A2
:1024D00008950E944F12811102C00E94B012089507
:1024E00081E090918D029A3008F080E008950F937A
:1024F0001F93CF93DF93EC01162F072F80918D024E
:102500008A3090F4612F702FCE010E94FF1281114A
:1025100021C080918D028F3FB1F40E94F5229093EB
:102520008A028093890209C08091890290918A026F
:102530000E940D23843F914028F780E0DF91CF91E6
:102540001F910F9108958F5F80938D028A3028F735
:1025500081E0F4CF10928D02FBCF0E9442250895B6
:102560000E9445250895A0E0B0E0E9EBF2E10C946B
:102570000F2EFA0169017801C82F880FDD0B309703
:10258000B9F0DE0193E0AA0FBB1F9A95E1F7AD5FAA
:10259000BE4F11968D919C91129782579D4F2C9111
:1025A000422F50E0E217F10508F4AF010E94492ED6
:1025B000CE010E943026182F8115D9F0E114F104C4
:1025C000C1F083E0CC0FDD1F8A95E1F7FE01ED5FDE
:1025D000FE4F8381482F50E0E816F10408F4A7016C
:1025E000CD5FDE4F6C817D8162577D4FC6010E94B9
:1025F000492E812FCDB7DEB7E8E00C942B2E0E9438
:10260000551408950E94791408950E94631708953F
:10261000A4E0B0E0EEE0F3E10C94132E6091B3027D
:102620007091B4028091B5029091B6020E941C2371
:1026300011E0643671058105910520F10E94621058
:10264000DC01CB010296A11DB11D89839A83AB8366
:10265000BC8300E010E020E030E044E050E0BE0148
:102660006F5F7F4F85E00E94B312182F811551F0E4
:102670000E9401236093B3027093B4028093B50269
:102680009093B602812F2496E4E00C942F2EA1E0C3
:10269000B0E0EDE4F3E10C940A2E762E5A014901E4
:1026A000680101E010E09E012F5F3F4F40E050E0E5
:1026B00060E070E00E94B312182F8115A9F1F501B6
:1026C00060817181828193810E941C23643671052F
:1026D0008105910510F18701940140E050E060E030
:1026E00070E0872D0E94B312082FB701C6010E9427
:1026F0009818998110E098130BC0102F117000FFEB
:1027000007C00E940123F501608371838283938354
:10271000812F2196EDE00C94262EB701C6010E9470
:10272000981899818913D7CFA701B601C4010E94D7
:10273000492EEECFAAE0B0E0E0EAF3E10C940D2ED2
:10274000C090CA01D090CB01560187E0A80EB11C01
:1027500088E0E82EF12C85019E012F5F3F4F4FEA64
:1027600052E063E082E00E944713182F811531F098
:10277000F60196818091AE0298131AC0812F2A9695
:10278000EAE00C94292E69858A850E944C17F82E60
:1027900081110FC000E010E020E030E040E050E0A8
:1027A00060E070E084E00E94B3121F2D18230EC079
:1027B000F12CAE01475F5F4FBE01665F7F4FC501E1
:1027C0000E942B178111DFCFF110E4CFF601868133
:1027D0008093AE02D3CFA5E0B0E0E1EFF3E10C943B
:1027E0000F2E6B010091CA011091CB010F5F1F4F9B
:1027F00085E0E82EF12C9E012F5F3F4F4AEA52E020
:1028000061E080E00E944713811549F095E0FE01E8
:102810003196A5EAB2E001900D929A95E1F795E024
:10282000E5EAF2E0D60101900D929A95E1F725963E
:10283000E8E00C942B2EA0E0B0E0E1E2F4E10C948F
:102840000D2E182F092FB62EA72E7A010E94701276
:102850009AE0C92ED12C811103C0CC24C394D12C71
:10286000C1E0D0E06B2D7A2D812F902FF7010995D3
:10287000811116C02196CC16DD0694F0CC9FC001C4
:10288000CD9F900D900D112420E030E045E34A9556
:10289000F1F700002F5F3F4F28173907B9F7E2CF54
:1028A000CDB7DEB7EAE00C94292E0F931F93CF9398
:1028B000DF93D82FC92F8B014BEE53E10E941B14DD
:1028C000811106C080E0DF91CF911F910F91089593
:1028D0004AE953E1B8018D2F9C2F0E941B148115EA
:1028E00089F348E053E1B8018D2F9C2F0E941B14FF
:1028F000EACF0F931F93CF93DF93FB01C091CA01DF
:10290000D091CB01CE01019625E0DC0101900D9222
:102910002A95E1F765E070E00E94981888838E019F
:10292000095F1F4FC8010E945A1768E070E0C80194
:102930000E9498188E836F85788989899A89009179
:10294000A1021091A2022091A3023091A40260176B
:1029500071078207930751F06093A1027093A2025E
:102960008093A3029093A4020E944510DF91CF911F
:102970001F910F9108950E94A70D08950E948E2225
:102980000E942C280E945F0D0E9446280E948D0DF7
:102990000E9453280E9458280E94BB140E9472284B
:1029A0000E94F9260E946D0DF5CF9093F50180935A
:1029B000F4010895AB0124E630E0BC0188E70E94F1
:1029C000FD239C0181E0232B09F080E00895AB01F9
:1029D00024E630E0BC0188E70E944C249C0181E0A1
:1029E000232B09F080E008950F931F93AC019B0106
:1029F00004E610E060E488E70E9497249C0181E0EF
:102A0000232B09F080E01F910F9108950E94C723A6
:102A1000089508950E9409150895EAE2F3E080E020
:102A200092E0DF019C011D9221503040E1F7F093CC
:102A30003105E09330058FEF9FEF9093DD02809397
:102A4000DC020895CF930E9409150E940A1590E2B6
:102A500080FF90E88093D8029093D7020E940615D9
:102A60006BE070E08FE292E00E94E714811104C0F5
:102A7000C0E08C2FCF9108958091D80265E070E07E
:102A800081FD29C08AE292E00E94E714811581F35A
:102A90006DE070E088E192E00E94E714C82F811594
:102AA00039F30E940123DC01CB01805A9541AF4FDD
:102AB000BF4F80932C0590932D05A0932E05B093C6
:102AC0002F050E940D1581E08093DB028093DA02CE
:102AD0001092D902CECF85E292E0D6CF2091D702D4
:102AE00036E0839FC0011124269F800D911D112483
:102AF000811522E0920714F080E090E0865D9C4F03
:102B000090933105809330050895CF93C091DB02F7
:102B1000C11105C0C091DA028C2FCF9108950E9497
:102B20000123DC01CB01805A9541AF4FBF4F809309
:102B30002C0590932D05A0932E05B0932F05809121
:102B4000DA028111E9CF62E070E086E192E00E9452
:102B5000E7148115F9F281E08093DA02DDCFA4E079
:102B6000B0E0E5EBF5E10C94052E8C838091DC025E
:102B70009091DD02892BF1F08091DB028115D1F07B
:102B80008091D902811116C00E94851510E01B8228
:102B900044244394512C00E247E0F42E2091DC02BF
:102BA0003091DD022115310529F0111551F0FC811C
:102BB000F11107C02496E2E10C94212E4B814F5F66
:102BC0004B835B81852F90E0520102C0AA0CBB1C95
:102BD0005A95E2F7A50142235323452B79F320911F
:102BE000D80220FD3BC09695879596958795282F0E
:102BF0009B819295990F90763FE1390F9093350123
:102C000080933801309336012093390167E070E0FA
:102C100083E391E00E94DA14811561F2BB81A0E2A6
:102C2000BA9FC00111242091D80220FD20C060E28B
:102C300070E0865D9C4F0E94F414811509F4BACFB0
:102C4000A094B0948091DC029091DD028A219B21B6
:102C50009093DD028093DC021F5FA0CF9B81990FD0
:102C6000990F990F37E0390F80E023E0C7CFE7EBEA
:102C7000F2E0202F11922A95E9F740ED51E05A83B6
:102C800049836CEC71E0E981FA81A191FA83E983CF
:102C9000FB012191BF01280F392F311DA901465D8C
:102CA0005C4F1A01EA2FF0E0E954FD4F20E030E0DC
:102CB0006F2C621A842C022E01C0880C0A94EAF749
:102CC0006101912CD601ED906D01E820462D491946
:102CD000477050E0BE2D042E01C0BB0F0A94EAF7E6
:102CE0007B2E5195419551094770552701C0E694B7
:102CF0004A95EAF7EB2A4081E42AE082939448E07F
:102D00009412E0CF2F5F3F4F31962830310581F686
:102D1000A4EDB1E0E981FA81AE17BF0709F0B3CFA6
:102D200060E270E087EB92E086CFCF93C091DB0248
:102D30008091DA02C11106C091E0C82FC9278C2FFB
:102D4000CF9108958115D9F362E070E084E192E0BB
:102D50000E94E714811103C0C091DA02F0CF1092F3
:102D6000DA02EDCF81E008950E94B21608950F9324
:102D70001F938091DB02811581F180912A0590914A
:102D80002B050E940D23C29760F00E94F5229093BC
:102D90002B0580932A0560E080E00E946E150E945A
:102DA000B41680E00E94AF158091DA028115A9F077
:102DB0000E94012300912C0510912D0520912E05D4
:102DC00030912F05601B710B820B930B6F3F7F4F70
:102DD0008F4F9F4710F40E9495161F910F910895F1
:102DE0000E944F120895EFEDF2E088E0DF011D929E
:102DF0008A95E9F70E9412180895FC01228130E0BB
:102E00002F5F3F4F23703327938181E09217130682
:102E100009F080E008950F931F93CF93DF93EC01A7
:102E2000162F042F0E94FD16811113C08A81FE0106
:102E3000E80FF11D00FB17F914838F5F83708A83FD
:102E400088818F5F888381E0DF91CF911F910F91FF
:102E5000089580E0F9CFCF93DF93FC01EA01A381CD
:102E600082818A17B9F0AE0FBF2FB11D14968C91D5
:102E700087FB992790F98F77DB018C939883838167
:102E80008F5F8370838381818F5F818381E0DF9196
:102E9000CF91089580E0FBCF462F682F8FED92E011
:102EA0000E940B170895AB01BC018FED92E00E94C8
:102EB0002B170895DC0188E0EFEDF2E001900D9210
:102EC0008A95E1F7089581E08093DE020895CF931B
:102ED000DF93D62F0E944E02C82F811541F06AE081
:102EE00070E089EAD11101C08AEA0E9486048C2F21
:102EF000DF91CF910895A2E0B0E0E1E8F7E10C9412
:102F0000132E00E0BE016F5F7F4FCE0102960E943C
:102F10005317182F811105C0802F2296E4E00C94DE
:102F20002F2E69818A810E946717012FEBCFCF93E3
:102F30000E94F016C82F811519F00E947B17C82F28
:102F40008091DE02811551F01092DE028091E10243
:102F50008093E2028091DF028093E0020E945C187D
:102F60000E94F016811519F00E947B17C82B8C2F38
:102F7000CF9108958FE891E00197F1F700C000002C
:102F8000089540B385EF861B8F7021E030E0B901D2
:102F900002C0660F771F8A95E2F7CB01962F9095B6
:102FA000942390BB91B3892B81BB08958FB190E09E
:102FB00025EF261B2F7002C0959587952A95E2F77D
:102FC000817008950895CF93DF93C0E08091E80267
:102FD000C81760F00E94BA17C0E08091E802C817D5
:102FE00078F00E94E217DF91CF91089560E08C2F76
:102FF0000E94C11761E08C2F0E94C117CF5FE6CFFE
:1030000060E08C2F0E94D617D82F61E08C2F0E9491
:10301000D617EC2FF0E0E551FD4F880F8D2B808304
:10302000CF5FDBCF8091020191E089278093E70297
:10303000809102019093E802809102010E94E317BF
:1030400008951F93CF93DF93182F440F642BC82F3D
:10305000D0E0DE01A551BD4FEC918E2F8370681733
:1030600039F1EE0FEE0FE62BEC938091E702180F8B
:10307000EF70F0E0EC52FE4FC751DD4F8081988138
:10308000890F8883823024F060E0812F0E944C17E2
:1030900088818F3F24F461E0812F0E944C17888142
:1030A000082E000C990B62E070E00E94E42D8883EA
:1030B000DF91CF911F910895CF93DF93C0E080916E
:1030C000E802C81718F0DF91CF91089561E08C2FC6
:1030D0000E94D617D82F60E08C2F0E94D617682F39
:1030E0004D2F8C2F0E942118CF5FE9CF0E945A0CE0
:1030F000089580E00E94A010817008950E94C1117F
:103100002FEF86E791E0215080409040E1F700C02A
:1031100000000E94C1110E947918811521F00E94BF
:1031200076180E94562308950E947E1808950895E7
:10313000FC01680F791F8FEF41E3E617F70709F4E9
:1031400008959191892728E030E0982F990F87FF03
:1031500006C0892F842721503040B9F7EECF892F40
:10316000FACF84E0089550E0440F551F9CE0699F1A
:10317000400D511D112498E7899F400D511D1124C8
:10318000CA01889608950F931F93CF93DF938430DD
:10319000C8F46A30B8F44630A8F40E94B3188C0121
:1031A0000E94522EC82FD0E0DC2FCC27C8010196F8
:1031B0000E94522E9E01282BC901DF91CF911F91B1
:1031C0000F91089580E090E0F8CF0F931F93CF9375
:1031D000DF93122F032F843078F46A3068F446307E
:1031E00058F40E94B318EC01602F0E94702E612FDA
:1031F000CE0101960E94702EDF91CF911F910F9109
:1032000008951F93CF93DF93D0E0C0E011C0412F0A
:103210006C2F8D2F0E945F029C01412F6C2F8D2FF0
:103220000E94E5181F5F163091F7CF5FCA3011F08A
:1032300010E0EDCFDF5FD43041F7DF91CF911F91E8
:103240000895EF92FF920F931F93CF93DF938C011A
:10325000EA017A01E60EF71ECE15DF0529F4CDB797
:10326000DEB7E6E00C942D2E003E81E0180740F416
:10327000C80188960E94522E89930F5F1F4FECCF92
:1032800080E0FACFEF92FF920F931F93CF93DF93DB
:103290008C01EA017A01E60EF71ECE15DF0529F44E
:1032A000CDB7DEB7E6E00C942D2E003E81E0180786
:1032B00028F46881C80188960E94702E21960F5FBD
:1032C0001F4FEBCF843038F46A3028F4463018F4BE
:1032D0000E94C318089580E090E0089580E1089569
:1032E00088EF91E00895EF92FF920F931F93CF9391
:1032F000DF938C01EA017A01E60EF71ECE15DF0599
:1033000029F4CDB7DEB7E6E00C942D2E083F81E01E
:10331000180748F4C801885F9D4F0E94522E899378
:103320000F5F1F4FEBCF80E0FACFEF92FF920F932A
:103330001F93CF93DF938C01EA017A01E60EF71E0B
:10334000CE15DF0529F4CDB7DEB7E6E00C942D2EBF
:10335000083F81E0180730F46881C801885F9D4FFD
:103360000E94702E21960F5F1F4FEACFCF93DF93FD
:10337000C8E0D2E060E0CE010E94702E2196C11517
:1033800084E0D807B9F7DF91CF910895A8E0B0E0C5
:10339000ECECF9E10C940D2EF82E20E1821708F0E8
:1033A00067C08FEF93E00E94522E811161C008E048
:1033B00012E0F11033C0FE0131965F0188E01192F6
:1033C0008A95E9F76801FFEFCF1ADF0AC8010E946A
:1033D000522E89831A82811509F44AC08130C1F4C2
:1033E000780122E0E20EF11CC6010E94522E8A836F
:1033F0008115F1F19FEF980F9330E8F482E0C80E49
:10340000D11CC7010E94522E8B83811589F11C8229
:1034100060E0C5010E94511E8601D4CF011584E0F1
:10342000180731F1C8010E94522E0F5F1F4F811102
:10343000F5CFFA94BECF8430A1F402E010E0C701CA
:10344000EFEFEE1AFE0A0E94522EF501E00FF11F77
:103450008083811569F08C3731F4FE01E00FF11F94
:1034600012826701D5CF0F5F1F4F0730110539F763
:103470002896EAE00C94292ECF93DF93EB01863156
:103480009C4719F50E94630B9D819115A1F08A7AE2
:1034900091E0811101C090E09093ED02811549F017
:1034A00085E30E94C0210E94F60B80E0DF91CF915E
:1034B000089589E2F6CF8091ED02811521F085E330
:1034C0000E94C821F0CF89E2FBCF81E0EFCFCF93FC
:1034D000DF93EC01FB018581811509F4CFC09E01CA
:1034E00030572332310508F0AFC00E947D0C909315
:1034F0000F0380930E03FE01E150F047E232F10525
:1035000020F4EE54F14D0C94F82D80910E0381605F
:1035100080930E0390C080910F03886080930F0307
:103520008AC080910E038260F3CF80910E03846085
:10353000EFCF80910E038860EBCF80910F03816005
:10354000EDCF80910F038260E9CF80910E038061FF
:10355000DFCF80910E038062DBCF80910E03806409
:10356000D7CF0E94F60680910E038068D1CF80915C
:103570000E038C60CDCF80910F038360CFCF8091FD
:103580000E038E7FC5CF80910F03877FC7CF8091B9
:103590000E038D7FBDCF80910E038B7FB9CF8091BD
:1035A0000E03877FB5CF80910F038E7FB7CF8091B9
:1035B0000F038D7FB3CF80910E038F7EA9CF8091B3
:1035C0000E038F7DA5CF80910E038F7BA1CF0E942C
:1035D000F60680910E038F779BCF80910E03837F39
:1035E00097CF80910F038C7F99CF80910E039927FD
:1035F00082FF939590FB82F990FB83F989CF8091AC
:103600000F03982F909590FB80F990FB81F986CF5E
:1036100090910E03892F8F7B96FF806479CF0E9453
:10362000F60690910E03892F97FB87F9805870CF8B
:1036300081E00E94050D80910E0390910F030E947E
:10364000820C0E94F60680E0DF91CF91089580E021
:10365000F0CF90910E03892F8F7E94FF806158CF19
:1036600090910E03892F8E7F90FF816051CF9091B2
:103670000F03892F877F93FF886050CF81E0E4CFCD
:10368000282F35EB2303C001112497FF04C0805875
:103690009109892F089580589F4FFBCF8091F402A4
:1036A00080FF0DC060913F0170E0660F771F6038AA
:1036B0007105B0F561157105A9F1862F089581FF97
:1036C00007C060913F0184E0689FB0011124EFCFF3
:1036D00082FF04C060913F0188E0F6CF9091F30231
:1036E0009115D9F020913E0180913F01682F70E043
:1036F000921730F043E0660F771F4A95E1F7D7CF76
:10370000899FC001112433E0880F991F3A95E1F792
:10371000622F70E00E94E42DCACF68E070E0CDCF48
:103720008FE7089581E008958091F40280FF0CC036
:1037300060913B0170E0759567957595679561158A
:10374000710549F1862F089581FF06C060913B0104
:1037500070E075956795F3CF60913B0182FD0BC0DA
:103760009091F2029115A1F060913A0180913B0194
:10377000961738F0682F70E06038710500F38FE716
:103780000895899FC001112470E00E94E42DF4CFB8
:1037900061E070E0D7CF81E00895E3E3E80FE33123
:1037A000E0F5F0E0EC52F14D0C94F82D0E944E1B28
:1037B00081958093F80208950E944E1BFACF0E94D3
:1037C0004E1B81958093F70208950E944E1BFACFFD
:1037D0000E94941B8093F90208950E94941B819586
:1037E000F9CF0E94941B81958093FA0208950E945C
:1037F000941BFACF815D990B21E030E001C0220FCC
:103800008A95EAF78091F602822B8093F60208955A
:103810008091F40281608093F40208958091F40213
:103820008260F9CF8091F4028460F5CF4091F70275
:103830008D3C59F48091F80287FF0DC01092F80278
:10384000411559F41092F30208C08E3C81F4809126
:10385000F80218169CF3411581F08091F9029091BD
:10386000FA02892B811159C01092F20208958F3CFF
:1038700041F447FFF0CF1092F7028091F8028115D2
:10388000E0CF803D19F41416B4F3E5CF9091F9021E
:10389000893D29F41916FCF61092F902DCCF8A3D15
:1038A00019F497FFD8CFF8CF9091FA028B3D29F405
:1038B00097FFD1CF1092FA02CECF8C3D19F4191692
:1038C000CCF3C9CF9FE2980F983090F4815D990BAB
:1038D00021E030E0B90102C0660F771F8A95E2F758
:1038E000CB0180959091F60289238093F602B3CFA5
:1038F0008D3D31F48091F4028E7F8093F402ABCF42
:103900008E3D21F48091F4028D7FF7CF8F3D09F039
:10391000A2CF8091F4028B7FF0CF08950E94F52210
:103920002091F7023091F802232B211521F080938A
:10393000F0029093F1022091F9023091FA02232BC8
:10394000211521F08093EE029093EF0285EF92E033
:103950000E941521089586E0E5EFF2E0DF011D9257
:103960008A95E9F71092F3021092F2021092F40293
:103970000895FC01828181110DC0838181110AC0EB
:103980008481811107C081E09581911101C080E09F
:103990008170089581E0FCCFA6E0B0E0E2EDFCE1AB
:1039A0000C940F2E86E0E5EFF2E09E012F5F3F4F73
:1039B000D90101900D928A95E1F71092F7021092C9
:1039C000F8021092F9021092FA028B819C81892BE5
:1039D0007901811589F08091F0029091F1020E94A5
:1039E0000D236C018091F3028115B9F19091400192
:1039F0009C151D0408F43EC08D819E81892B811584
:103A000091F08091EE029091EF020E940D238C01C3
:103A10008091F202811509F45FC090913C019017EA
:103A2000110608F467C0B70185EF92E00E94DB2120
:103A3000811105C085EF92E00E94B91C81110E949E
:103A40008E1C86E0F701A5EFB2E001900D928A95F9
:103A5000E1F72696E8E00C942B2E209141019AE0A4
:103A6000299F900111242C153D0530F68F5F80931E
:103A7000F30202C08F3FD1F7DB80D11459F00E94CE
:103A80004E1B91E01D140CF09FEF899F802D112497
:103A90008093F702DC80D11459F00E944E1B91E014
:103AA0001D140CF09FEF899F802D11248093F80244
:103AB0008091F702811509F49FCFD090F802D114BC
:103AC00009F49ACF0E94401B8093F7028D2D0E942B
:103AD000401B8093F80290CF20913D019AE0299FEE
:103AE000900111242017310708F09DCF8F5F80933C
:103AF000F20202C08F3FD1F71D81111559F00E94CB
:103B0000941B91E011160CF09FEF899F802D1124DA
:103B10008093F9021E81111559F00E94941B91E0C7
:103B200011160CF09FEF899F802D11248093FA02CB
:103B30008091F902811509F476CF1091FA021115DE
:103B400009F471CF0E94401B8093F902812F0E94DB
:103B5000401B8093FA0267CFA0E0B0E0E2EBFDE10A
:103B60000C940E2EE82FF0E0E65CFD4FB490282F69
:103B700026952695269530E0F901E652FD4F0491F1
:103B8000877010E0082E02C0159507950A94E2F799
:103B900001701127F901E653FD4FE490F12C082E36
:103BA00002C0F594E7940A94E2F7E0FAEE24FF24C9
:103BB000E0F8F901E654FD4FC491D0E002C0D5957C
:103BC000C7958A95E2F7C170DD27C62ED12C011565
:103BD000110549F5E114F10431F086EE0E940B0461
:103BE000C601009771F5B6018B2D0E948604C601AF
:103BF000009779F5E114F104A1F50115110531F0F3
:103C000081EE0E945304C6010097C9F5CD2B31F017
:103C10008CE20E94A004C114D104C9F5CDB7DEB76F
:103C2000E9E00C942A2E81EE0E940B04C601009755
:103C300089F2EFE9FFE03197F1F700C0000001974A
:103C4000F6CFEFE9FFE03197F1F700C000000197F0
:103C5000C8CFEFE9FFE03197F1F700C0000001970E
:103C6000C7CF86EE0E945304C601009731F2EFE9F8
:103C7000FFE03197F1F700C000000197F6CFEFE9C0
:103C8000FFE03197F1F700C000000197BDCF8FE949
:103C90009FE00197F1F700C0000091E0C91AD10838
:103CA000BACFEF92FF921F93CF93DF93EC01162FC1
:103CB0008881811509F45AC0813009F053C0898187
:103CC000813071F47E0182E0E80EF11C8A810E944D
:103CD000A004E701812F90E00097E1F52196E8CF5D
:103CE000823041F47E01E2E0EE0EF11C8A810E94F6
:103CF0000B04EFCF833041F47E01F2E0EF0EF11CB4
:103D00008A810E945304E5CF843011F02196E2CFDE
:103D10002A81229680E090E06AE0AE014F5F5F4F1B
:103D20002053330B2A30310550F0009799F2EFE918
:103D3000FFE03197F1F700C000000197F6CF689FD0
:103D4000F001699FF00D1124C9018E0F9F1F298179
:103D5000EA01E3CFEFE9FFE03197F1F700C000009F
:103D60000197BACF612F0E94AC1DB8CFDF91CF91E0
:103D70001F91FF90EF9008950F931F93CF93DF93C0
:103D8000C42FD22FFC0185818115C9F04093FD021B
:103D90000E94F5229093FC028093FB0280E28C0F3C
:103DA000883040F4C77081E001C0880FCA95EAF7F7
:103DB0000E94A904DF91CF911F910F910895109156
:103DC000FD02141333C08091FB029091FC020E940B
:103DD0000D23883C910550F5C0E2CD0F1D17C1F0B1
:103DE00080E2810F883040F4177081E001C0880FB5
:103DF0001A95EAF70E94B004C83050F491E08D2F74
:103E0000877001C0990F8A95EAF7892F0E94A9044B
:103E1000802F0E94A004C83068F6D77081E001C0EE
:103E2000880FDA95EAF70E94B004C4CF80E28C0FC5
:103E3000883008F0BFCFC77081E001C0880FCA95F5
:103E4000EAF7F1CF0F93DB01FC01E851FC47E730C3
:103E5000F10598F5E951F14D0C94F82D06E221EEAB
:103E600041EE6AE17CE7CD010E94BC1E80E00F912B
:103E7000089507E225EE45EE6BE17CE7F4CF06E21C
:103E800021EE40EE68E17CE7EECF07E225EE44EE5E
:103E900069E17CE7E8CF06E221EE42EE6CE17CE7E7
:103EA000E2CF07E225EE46EE6DE17CE7DCCF08E2EB
:103EB00021E045EE6EE17CE7D6CF15968C9181111D
:103EC0001092FD0281E0D3CFCF93DF939C01FB01E1
:103ED00027378CE7380739F028373C47F1F081E085
:103EE000DF91CF9108958581811591F00E94961FF1
:103EF0000E9477070E949C1FD82F0E94991FC82FED
:103F00000E94961F4D2F6C2F0E94A80880E0E8CFDA
:103F10000E94961F0E948307EDCF8581811519F0BD
:103F20000E94991FE5CF0E94991FF4CF8091440110
:103F3000089580914301089580914201089584E29B
:103F400090E00E94522E853289F485E290E00E9432
:103F5000522E813059F486E290E00E94522E91E078
:103F6000893009F090E0892F8170089580E0FCCFBE
:103F7000CF93C82F65E2811101C06FEF84E290E01A
:103F80000E94702E61E0C11101C06FEF85E290E0E8
:103F90000E94702E69E0C11101C06FEF86E290E0CF
:103FA0000E94702ECF910895089587E290E00E94BC
:103FB000522E682F70E080E090E008950895CF932E
:103FC000C62F0E94DE1F6C2F87E290E00E94702EA9
:103FD000CF91089580E00E94B81F60E070E0CB01AF
:103FE0000E94DF1F0E9401190E94B61981E00E9401
:103FF000B81F08950E94D41F0E94D51F0E94DE1F83
:104000000E949F1F811102C00E94EA1F0895089517
:104010009C01FB018581811551F0A901575740385A
:10402000510530F4822F0E94C61980E0089581E086
:1040300008952FEFFC01208308950E941920089510
:1040400080E00895CF92DF92FF920F931F93CF935A
:10405000DF93EC01F62E0E942020811110C0E88130
:10406000E150E331E0F4F0E0E251F14D0C94F82D31
:1040700019828CE08A836F2DCE010E94EF26DF919A
:10408000CF911F910F91FF90DF90CF90089589817C
:104090008330F9F038F4813061F0823099F08FEF9D
:1040A0008883E9CF8430D9F71A821B821C821D8253
:1040B000E2CF0E9401230E94FE2D6A837B838C83C2
:1040C0009D83D9CF0E94D51F1A821B821C826D83CB
:1040D000D2CF0A8110E06E0183E0C80ED11C0A30F5
:1040E00011054CF6802F0E94A010F60181936F01FC
:1040F0000F5F1F4FF4CF8981823031F0853079F620
:104100008A810E940720B7CF6A817B818C819D8143
:104110000E94FE2D0E94DF1FAECF4B816A818981F4
:104120000E94C3189827892798279D838C83A3CF43
:104130002C813D813227232732274B816A81898157
:104140000E94E51898CF0E94011995CF6F2DCE01DE
:104150000E941D2090CF0E946E1989838CCF0E94EF
:1041600070199827892798279A83898384CF6B8130
:1041700070E089819A81AE014C5F5F4F9827892753
:1041800098270E94731977CF6B8170E089819A819B
:10419000AE014C5F5F4F9827892798270E94951999
:1041A0006ACF0E94B61967CF0E94B118D6CF6B8133
:1041B00070E089819A81AE014C5F5F4F9827892713
:1041C00098270E94211957CF6B8170E089819A81CD
:1041D000AE014C5F5F4F9827892798270E944219AC
:1041E0004ACF909304038093030308950E944F12D3
:1041F000811103C08091FE020895E0910303F091C4
:104200000403309729F00190F081E02D099508957D
:1042100080E00895E0910303F0910403309721F0CA
:104220000280F381E02D09950895DC01E0910303FC
:10423000F0910403309739F082E08C930680F78187
:10424000E02DCD0109950895A3E0B0E0EAE2F1E2A6
:104250000C94152E9C01809101039091020382170A
:104260009307A1F03093020320930103E09103032D
:10427000F0910403309751F083E089833B832A83D4
:104280000084F185E02DCE01019609952396E2E0A8
:104290000C94312EA3E0B0E0E0E5F1E20C94152E91
:1042A0009C018091FF029091000382179307A1F077
:1042B000309300032093FF02E0910303F091040385
:1042C000309751F084E089833B832A830084F18511
:1042D000E02DCE01019609952396E2E00C94312E53
:1042E00040910001509101019A012E5F3F4F485FBC
:1042F0005F4F80E0F90190812F5F3F4F91118F5FF9
:1043000042175307B9F70895811571F02091000104
:1043100030910101F9013296285F3F4F9191981732
:1043200029F0E217F307D1F780E0089581E00895BE
:104330009C01FC0132968FEF90E04191461751F0BD
:104340008F3F19F4411101C0892F9F5F9630A9F763
:104350008F3F09F40895280F311D87FD3A95F90123
:10436000628308959C01FC013296285F3F4F819142
:10437000861302C0DF011E92E217F307C1F708950A
:10438000682F80910001909101010E949821089569
:10439000682F80910001909101010E94B22108953F
:1043A000E0910001F0910101329686E0DF011D925B
:1043B0008A95E9F70895DC01FB0111969C9111970C
:1043C0008181981322C012968C911297811519F051
:1043D000928189131AC013968C911397811519F045
:1043E0009381891312C015968C911597811519F038
:1043F000958189130AC014969C91911521F081E052
:104400002481291303C080E001C081E081700895F8
:1044100008950E94082208958F5F8093480160915B
:1044200045017091460180914701909148010E9499
:104430000922089583E080934801609145017091BD
:10444000460180914701909148010E9409220895F8
:104450000E940C22089581E08093480160914501FB
:104460007091460180914701909148010E94092274
:1044700008950E942B22089591E0811101C090E0DF
:1044800090934701609145017091460180914701E9
:10449000909148010E940922089580914701089552
:1044A00080934601609145017091460180914701DA
:1044B000909148010E940922089580914601089533
:1044C00080934501609145017091460180914701BB
:1044D000909148010E940922089580914501089514
:1044E000089508950E9471220895089508950E94E4
:1044F00070220895CF930E9475220E94C1110E94DC
:104500007622C0E08C2F0E94A010811105C0CF5FE1
:10451000CA30C1F7CF91089581E0FCCF85B780689C
:1045200085BF85B7806885BF08951F921FB61F920B
:1045300011248F939F93AF93BF93809105038111B3
:1045400013C08091320590913305A0913405B0914C
:1045500035054196A11DB11D809332059093330519
:10456000A0933405B0933505BF91AF919F918F9182
:104570001F901FBE1F90189580913A05843031F12D
:104580000E9484031092050388E190E020E40FB6B6
:10459000F894A895809360000FBE2093600083B7C5
:1045A000817F846083BF83B7816083BF789488955F
:1045B00083B78E7F83BF0FB6F894A8958091600073
:1045C000886180936000109260000FBE08950E9481
:1045D000F6060E948B03089582E084BD93E095BDAA
:1045E0009AEF97BD80936E0008952FB7F89480914D
:1045F000320590913305A0913405B09135052FBF58
:1046000008952FB7F8946091320570913305809129
:104610003405909135052FBF08959C014FB7F8944C
:104620008091320590913305A0913405B091350504
:104630004FBF821B930B08950F931F938B019C0117
:104640004FB7F8946091320570913305809134052D
:10465000909135054FBF601B710B820B930B1F911F
:104660000F91089578941F921FB61F9211248F9373
:104670009F93AF93BF938091320590913305A091A2
:104680003405B09135050196A11DB11D8093320509
:1046900090933305A0933405B0933505BF91AF9146
:1046A0009F918F911F901FBE1F90189587E797E7E6
:1046B000909301088093000888E19AE00FB6F8947F
:1046C000A895809360000FBE90936000FFCF88E1B3
:1046D0009AE00FB6F894A895809360000FBE90936F
:1046E0006000FFCFFF920F931F93CF93DF93182F9C
:1046F000EB011092BC0084EA8093BC000E94F5227A
:10470000082FF92E8091BC0087FF28C08091B90046
:10471000887F883029F08091B900887F8031A1F5A9
:104720001093BB0084E88093BC000E94F522182FF0
:10473000092F8091BC0087FF1FC02091B900287FFE
:1047400080E090E0283199F081E090E0203411F48D
:1047500080E090E091958195910909C0802F9F2D6F
:104760000E940D23C817D90768F68EEF9FEFCDB7CB
:10477000DEB7E5E00C942E2E812F902F0E940D23A2
:10478000C817D907B0F6F1CF8FEF9FEFF0CF109297
:10479000B9008CE08093B80008950F931F93CF93D6
:1047A000DF93EB018093BB0084E88093BC000E9400
:1047B000F522182F092F8091BC0087FF11C020918E
:1047C000B900287F81E090E0283211F480E090E089
:1047D000919581959109DF91CF911F910F91089546
:1047E000CF3FDC0741F3812F902F0E940D23C81784
:1047F000D90708F78EEF9FEFEECFA0E0B0E0E3E03F
:10480000F4E20C940A2E782EB62EA72E6A01E90146
:104810000E94F5224C01C431D10528F1CF3FDC07BD
:1048200031F1CE0164E170E00E94D02DF62EE72E2A
:104830006F2D7E2D872D0E9472238C01892BD1F440
:10484000EB2CFA2CCE0CDF1CEC14FD0419F0011536
:104850001105D1F084E98093BC00C801CDB7DEB763
:10486000EDE00C94262EFF24F394E12CE1CF85E0BB
:10487000F82EFBCFCF3FDC07D9F2C4010E940D23F5
:10488000C817D907A8F6DCCFBE01F70181917F01D7
:104890000E94CD238C01D8CFA0E0B0E0E2E5F4E2A5
:1048A0000C940A2E782EB62EA72E6A0189010E943A
:1048B000F5224C010431110518F10F3F100719F1D1
:1048C000C80164E170E00E94D02DEB01BE01872D8C
:1048D0000E9472237C01892BC1F4CB2DDA2DCC0EE2
:1048E000DD1ECC15DD0519F0E114F104C1F084E9F9
:1048F0008093BC00C701CDB7DEB7EDE00C94262E47
:10490000C1E0D0E0E3CFC5E0FCCF0F3F1007F1F2EC
:10491000C4010E940D2308171907C0F6DECFFE015F
:104920008491B8010E94CD237C012196DACFA0E0CA
:10493000B0E0EDE9F4E20C94092E682E962E5A01AF
:10494000690178010E94F522782E892E0431110523
:1049500030F10F3F100731F1C80164E170E00E94AF
:10496000D02D162F072F612F702F862D0E947223B6
:10497000EC01892BC9F0FFEFEF16FF06A1F3872D9D
:10498000982D0E940D23E816F90668F784E98093B4
:10499000BC00CE01CDB7DEB7EEE00C94252E11E0C1
:1049A00000E0E1CF15E0FCCFB701892D0E94CD23B7
:1049B000EC018501CA0CDB1C0C151D0539F3209791
:1049C00029F7B701F80181918F010E94CD23EC01F5
:1049D000F3CF8EE14A9B02C08A95E1F74A9BFECF56
:1049E00008955A9880E28A95F1F75A9A0895FC0141
:1049F0003BE03A95F1F798E020E080E031E040E1DB
:104A00004A95F1F7880F4A9B02C08160232742E054
:104A10004A95F1F7000040E14A95F1F79A9579F748
:104A200090E19A95F1F799B132E03A95F1F70000EB
:104A300040E14A95F1F792FB992790F9922720815E
:104A4000920F90830895A1E0B0E0E9E2F5E20C94C2
:104A5000112E19828C017C01E60EF11C0E94E924C2
:104A6000CE0101960E94F724F80181938F01EE1583
:104A7000FF05A1F781E09981911180E02196E6E0A0
:104A80000C942D2E529A5A9A089552985A9AEA9A4C
:104A9000E9E6F0E080818F7C808308956150770B98
:104AA00091E001C0990F6A95EAF7692F90E021E043
:104AB000611108C0911599F05A9A80E28A95F1F730
:104AC0005A980895362F3823311539F05A9A92277B
:104AD00030E23A95F1F76695EBCF5A98F9CF5A98AC
:104AE000ECCFFF920F931F93CF93DF93EC018C01D8
:104AF000060F111DF9900E94F12468E08F2D0E948D
:104B00004E25C017D107B1F7CDB7DEB7E5E00C945D
:104B10002E2E1F920F920FB60F9211240F931F93F8
:104B20002F933F934F935F936F937F938F939F93B5
:104B3000AF93BF93EF93FF93CF93DF930F92CDB7D4
:104B4000DEB719820E94E924CE0101960E94F72463
:104B5000082F069506950695982F92959570202F0B
:104B60002570920F292F237096959695920F98276E
:104B700097708981892B811509F05CC0073008F096
:104B800059C080E18A95F1F75A9A529A82E08A9543
:104B9000F1F700C05A9888E0089F80011124D801DD
:104BA000AD5FBE4F1696ED91FC9117973097A9F027
:104BB0006091CA017091CB0114962D913C9115978B
:104BC000260F371F11968D919C911297680F791FB0
:104BD00013964C9113978C910995F801ED5FFE4F58
:104BE0006381611551F02091CA013091CB0184811C
:104BF0009581820F931F0E9471250E94F12480E10C
:104C00008A95F1F75A9852985A9A80E18A95F1F765
:104C1000F801ED5FFE4F6081611551F02091CA01EE
:104C20003091CB0181819281820F931F0E942325B5
:104C30000E94E9240F90DF91CF91FF91EF91BF91F6
:104C4000AF919F918F917F916F915F914F913F9124
:104C50002F911F910F910F900FBE0F901F901895DD
:104C60000F931F93CF93DF938C0107970CF064C0D1
:104C7000F894529A5A9885E08A95F1F70000C02F6F
:104C8000C695C570802F8570C80F8C2F8370C69510
:104C9000C69593E0000F111F9A95E1F7C80FC80160
:104CA0008C2BEC010E94F12400C068E08C2F0E9444
:104CB0004E2590E19A95F1F752985A9A4A9B35C041
:104CC00087E090E04A9933C0F801ED5FFE4F6381C1
:104CD000611561F02091CA013091CB0184819581E9
:104CE000820F931F0E942325811519F10E94E92448
:104CF00080E28A95F1F75A98529A90E19A95F1F7E5
:104D0000F801ED5FFE4F6081611551F02091CA01FD
:104D10003091CB0181819281820F931F0E94712576
:104D20000E94F124789481E008C000C0C7CF0197A9
:104D300049F4529A5A9A789480E0DF91CF911F916A
:104D40000F91089500C0BECF0895282FCB01BA015E
:104D500030913A053430D9F42F702093E9002FEFC9
:104D60003091E80035FD06C035ED3A95F1F70000C9
:104D70002A95B1F72091E80025FF09C040E050E0F6
:104D80000E94E8288091E8008E778093E8000895DB
:104D9000BC0143E050E084E00E94A5260895BC01D8
:104DA00046E050E084E00E94A5260895CF93DF936B
:104DB000D82FC92F0E944D2248E050E06D2F7C2F44
:104DC00081E00E94A52688E0ED2FFC2FA6E0B3E04D
:104DD00001900D928A95E1F7DF91CF910895792F97
:104DE000603231F440E250E0682F82E00E94A52654
:104DF0000895A0E2B0E0EFEFF6E20C94152E80915A
:104E00003A05843009F583E08093E9008091E80059
:104E100082FF1AC08091E80090E085FF09C040E061
:104E200050E060E270E0CE0101960E94382991E0E6
:104E30008091E8008B778093E800911529F060E27B
:104E4000CE0101960E942220A096E2E00C94312E21
:104E500080913905811109C00E94C12A0E941E2B30
:104E60008091E20084608093E200089510923905F9
:104E700008950E942B2281E00E943C2208956091B7
:104E8000360581E0611101C080E00E941A22089578
:104E900090913A0581E0943009F080E06091360508
:104EA0000E942822089542E061EC81E00E943D2AA0
:104EB00042E261EC84E00E943D2A42E261EC82E041
:104EC0000E943D2A42E260EC83E00E943D2A9091DC
:104ED0003A0581E0943009F080E0609136050E9447
:104EE0000C22089580913C05893089F148F4823084
:104EF00009F4A1C0833009F45BC0813041F008950A
:104F00008A3009F488C08B3009F46DC0089580910F
:104F10003B05813A09F04BC08091E800877F809380
:104F2000E80080913F0590914005892B61F060E099
:104F300080E090E070E00E9488298091E8008B7703
:104F40008093E800089568E086E093E0F3CF8091D5
:104F50003B05813261F580913F05909140058D7F41
:104F6000892B29F58091E800877F8093E800809164
:104F7000E80082FF18C09091F3008091F200029740
:104F800031F48091F100813011F0863021F480916C
:104F9000F1000E9450228091E8008B778093E80016
:104FA0000E94712A089580913A058111E0CF0895F9
:104FB00080913B05813AD9F780913F05909140055A
:104FC000892BA9F78091E800877F8093E800809182
:104FD000E80080FFFCCF0E944D228093F100809179
:104FE000E8008E77DBCF80913B05813201F780911D
:104FF0003F0590914005892BD1F68091E800877F8D
:105000008093E8000E94712A80913D050E943C2215
:105010000E94F606089580913B05813241F6809109
:10502000E800877F8093E8000E94712A80913E0506
:105030000E946022089580913B05813A09F0B7CF24
:105040008091E800877F8093E8008091E80080FFEE
:10505000FCCF0E946D22C1CF84B7877F84BF0FB67B
:10506000F894A89580916000886180936000109208
:1050700060000FBE80E890E00FB6F8948093610066
:10508000909361000FBE0E94392208950E94C12AA8
:105090000E941E2BE2EEF0E0808184608083789491
:1050A0000E94A42D089589E491E00E94F1200895C2
:1050B00080913A05853031F480913A05853019F0B8
:1050C0000E94E72208950E94BC220E947A22811544
:1050D00099F380913805811579F30E94D2280E94B6
:1050E000F606EACF08959A01409141055091420594
:1050F0000E947B280895FC01AB01D901892F9927D3
:1051000083309105C1F068F48130910509F445C000
:10511000029761F48BE590E020E133E02D933C931E
:10512000089581329105E1F0829739F180E090E0B5
:1051300020E030E0F3CFCF019927E13059F0823001
:10514000910559F0ECE0F3E0892B81F7849190E030
:105150009F01E4CFEAEFF2E0F9CFEAEEF2E0F6CF1A
:105160006330710518F7FB01EE0FFF1FE351FE4F8F
:105170002081318189E090E0D1CF63307105B0F6B4
:10518000FB01EE0FFF1FE951FE4F208131814C5191
:105190005E4FFA01808190E0C1CF82E190E02BE682
:1051A00033E0BCCF80E189BD82E189BD09B400FE56
:1051B000FDCF8091D8008F7D8093D8008091E00052
:1051C00082608093E0008091E00081FDFCCF089533
:1051D000AF92BF92CF92DF92EF92FF920F931F9305
:1051E000CF936C018B017A010E94902AC82F811104
:1051F00023C0E114F10439F0F70180819181081B8B
:10520000190BC80ED91EA12CB12C01151105A1F046
:105210008091E80085FD21C08091E8008E77809321
:10522000E800E114F10499F0F701808191818A0D81
:105230009B1D91838083C5E08C2FCF911F910F918F
:10524000FF90EF90DF90CF90BF90AF9008950E94B5
:10525000902A8115E9F2C82FEFCFF60181916F01F5
:105260008093F10001501109FFEFAF1ABF0ACDCFB3
:10527000AF92BF92CF92DF92EF92FF920F931F9364
:10528000CF936C018B017A010E94902AC82F811163
:1052900023C0E114F10439F0F70180819181081BEA
:1052A000190BC80ED91EA12CB12C01151105A1F0A6
:1052B0008091E80085FD21C08091E8008B77809384
:1052C000E800E114F10499F0F701808191818A0DE1
:1052D0009B1D91838083C5E08C2FCF911F910F91EF
:1052E000FF90EF90DF90CF90BF90AF9008950E9415
:1052F000902A8115E9F2C82FEFCF8091F100F601D5
:1053000081936F0101501109FFEFAF1ABF0ACDCF92
:10531000FC019B01809141059091420586179707FA
:1053200018F0672B61F0C90140E0009771F441115A
:105330000CC08091E80082FF35C080E00895809124
:10534000E8008E778093E800EECF20913A05211592
:10535000A9F12530A9F12091E80023FD2DC020916D
:10536000E80022FDE6CF2091E80020FFDECF30915B
:10537000F3002091F200009719F02830310558F021
:1053800041E02830310509F040E02091E8002E7717
:105390002093E800CACF41914093F10001972F5F1D
:1053A0003F4FE9CF80913A05811541F0853041F0BA
:1053B0008091E80083FFBDCF81E0089582E00895E9
:1053C00083E00895FC019B01809141059091420585
:1053D0008617970718F0672B61F0C90140E0009726
:1053E00071F441110CC08091E80082FF36C080E06A
:1053F00008958091E8008E778093E800EECF2091A9
:105400003A052115B1F12530B1F12091E80023FDD5
:105410002EC02091E80022FDE6CF2091E80020FF79
:10542000DECF3091F3002091F200009719F0283080
:10543000310558F041E02830310509F040E0209175
:10544000E8002E772093E800CACF44914093F10002
:10545000319601972F5F3F4FE8CF80913A05811534
:1054600041F0853041F08091E80083FFBCCF81E0BE
:10547000089582E0089583E00895982F973028F0EA
:105480008F708093E90081E008959093E900242FC4
:10549000762F50E0981731F07091EC002091ED00DC
:1054A0005091F00021FD02C09F5FE8CF3091EB00EA
:1054B0003E7F3093EB003091ED003D7F3093ED0067
:1054C0003091EB0031603093EB007093EC0020934F
:1054D000ED005093F0002091EE0027FDE5CF80E035
:1054E000089580913B0587FF13C08091E80082FFFB
:1054F00006C08091E8008B778093E8000895809142
:105500003A058111F2CF089580913A058115D9F3BA
:105510008091E80080FFF8CF8091E8008E77ECCF93
:105520002091E4003091E50095E6A9012091EC007E
:10553000822F817020FF06C08091E80080FF06C0A6
:1055400080E008952091E80022FD1AC080913A057C
:10555000811589F0853089F08091EB0085FD0FC0C1
:105560002091E4003091E50042175307F9F29A9533
:10557000E1F684E0089582E0089583E0089581E0F3
:1055800008950E94302B0E94382BE0EEF0E08081DD
:1055900081608083E8EDF0E080818F77808319BCA3
:1055A000A7EDB0E08C918E7F8C9380818F7E80837D
:1055B0001092390508950F931F93CF93DF930E94A4
:1055C000302B0E94382BC8EDD0E088818F778883FC
:1055D00088818068888388818F7D888319BC109238
:1055E0003A0510923605109238051092370500EEF4
:1055F00010E0F80180818B7F8083888181608883BF
:1056000042E060E080E00E943D2AE1EEF0E080812F
:105610008E7F8083E2EEF0E08081816080838081F4
:1056200088608083F80180818E7F8083888180619B
:105630008883DF91CF911F910F910895E8EDF0E0FD
:1056400080818F7E8083E7EDF0E0808181608083C0
:1056500084E082BF81E0809339050E94DB2A0895AF
:10566000E8EDF0E080818E7F80831092E200089563
:105670001092DA001092E10008951F920F920FB677
:105680000F9211242F933F934F935F936F937F93C8
:105690008F939F93AF93BF93EF93FF938091E1001C
:1056A00082FF0BC08091E20082FF07C08091E10081
:1056B0008B7F8093E1000E94A32D8091DA0080FF10
:1056C00019C08091D80080FF15C08091DA008E7FCC
:1056D0008093DA008091D90080FF94C080E189BD79
:1056E00082E189BD09B400FEFDCF81E080933A05D7
:1056F0000E9428278091E10080FF19C08091E2007C
:1057000080FF15C08091E2008E7F8093E20080913F
:10571000E20080618093E2008091D80080628093F3
:10572000D80019BC85E080933A050E943F278091FC
:10573000E10084FF29C08091E20084FF25C080E160
:1057400089BD82E189BD09B400FEFDCF8091D800FA
:105750008F7D8093D8008091E1008F7E8093E1005F
:105760008091E2008F7E8093E2008091E200816070
:105770008093E20080913605811509F449C084E0E8
:1057800080933A050E9448278091E10083FF29C059
:105790008091E20083FF25C08091E100877F8093A4
:1057A000E10082E080933A05109236058091E10095
:1057B0008E7F8093E1008091E2008E7F8093E200F3
:1057C0008091E20080618093E20042E060E080E04E
:1057D0000E943D2A8091F00088608093F0000E9432
:1057E0003927FF91EF91BF91AF919F918F917F9159
:1057F0006F915F914F913F912F910F900FBE0F903E
:105800001F90189519BC10923A050E94362772CF46
:105810008091E30087FF02C083E0B2CF81E0B0CF88
:105820001F920F920FB60F921124EF92FF920F93D7
:105830001F932F933F934F935F936F937F938F9318
:105840009F93AF93BF93CF93EF93FF9309EE10E035
:10585000F8018081C091EC008F70C795CC27C79567
:10586000C82B108280EFE82EF12CF7018081877F12
:10587000808378940E945B2CF8011082F70180816C
:1058800088608083CF70F801C083FF91EF91CF9142
:10589000BF91AF919F918F917F916F915F914F9148
:1058A0003F912F911F910F91FF90EF900F900FBE9E
:1058B0000F901F901895AAE2B0E0E1E6FCE20C948C
:1058C000132E8BE395E0FC0101962091F1002083DB
:1058D00025E083349207B9F70E9472278091E8008F
:1058E00083FF38C080913B0590913C059A3090F53C
:1058F000E92FF0E0EF5FF04D0C94F82D803889F03F
:10590000823841F580913F058F70873018F580937C
:10591000E9008091EB0085FB882780F91092E9006F
:1059200006C080913805880F90913705892B90919A
:10593000E800977F9093E8008093F1001092F100C7
:105940008091E8008E7723C0811116C080913D05BB
:10595000813011F18091E80083FF0AC08091E80056
:10596000877F8093E8008091EB0080628093EB005A
:10597000AA96E4E00C942F2E823061F780913D05C9
:10598000811589F01092E9008091E800877F80936B
:10599000E8000E94712ADECF81E0933009F080E0B8
:1059A00080933805EFCF80913F058F702FEF280F40
:1059B000263080F68093E9002091EB0020FFE2CFB3
:1059C000933031F48091EB0080628093EB00DACF6A
:1059D0009091EB0090619093EB0021E030E0A90101
:1059E00002C0440F551F8A95E2F74093EA001092D7
:1059F000EA008091EB008860E8CF8111ABCF109175
:105A00003D051F778091E3008078812B8093E30030
:105A10008091E800877F8093E8000E94712A80913E
:105A2000E80080FFFCCF8091E30080688093E30072
:105A300083E0111101C082E080933A058BCF80583A
:105A4000823008F087CF80913D0590913E058C3DD6
:105A500053E0950799F583E08A838AE289834FB7FB
:105A6000F894DE01139620E03EE051E2E32FF0E0EF
:105A700050935700849120FF03C082958F703F5F41
:105A80008F708A30C8F0895C90E08D939D932F5F72
:105A9000243161F74FBF8091E800877F8093E80051
:105AA0006AE270E0CE0101960E9488298091E800A8
:105AB0008B778093E8004ECF805DE6CF60913F0505
:105AC00070914005AE014F5F5F4F0E9473288C01BB
:105AD000892B09F43FCF8091E800877F8093E8000D
